{
  "contractName": "All_In_One",
  "abi": [
    {
      "constant": false,
      "inputs": [
        {
          "name": "_adharCardNumber",
          "type": "uint256"
        },
        {
          "name": "_name",
          "type": "bytes32"
        },
        {
          "name": "_addres",
          "type": "bytes32"
        },
        {
          "name": "_phoneNo",
          "type": "uint256"
        },
        {
          "name": "_bloodGroup",
          "type": "bytes32"
        },
        {
          "name": "_insuranceCompany",
          "type": "uint256"
        },
        {
          "name": "_emergencyContact",
          "type": "uint256"
        }
      ],
      "name": "addPatientInfo",
      "outputs": [],
      "payable": false,
      "stateMutability": "nonpayable",
      "type": "function"
    },
    {
      "constant": true,
      "inputs": [
        {
          "name": "_adharCardNumber",
          "type": "uint256"
        }
      ],
      "name": "getPatientInfo",
      "outputs": [
        {
          "name": "name",
          "type": "bytes32"
        },
        {
          "name": "addres",
          "type": "bytes32"
        },
        {
          "name": "phoneNo",
          "type": "uint256"
        },
        {
          "name": "bloodGroup",
          "type": "bytes32"
        },
        {
          "name": "insuranceCompany",
          "type": "uint256"
        },
        {
          "name": "emergencyContacts",
          "type": "uint256"
        },
        {
          "name": "Precautions",
          "type": "bytes32"
        }
      ],
      "payable": false,
      "stateMutability": "view",
      "type": "function"
    },
    {
      "constant": false,
      "inputs": [
        {
          "name": "_adharCardNumber",
          "type": "uint256"
        },
        {
          "name": "_Precautions",
          "type": "bytes32"
        }
      ],
      "name": "UpdatePrecautions",
      "outputs": [],
      "payable": false,
      "stateMutability": "nonpayable",
      "type": "function"
    },
    {
      "constant": false,
      "inputs": [
        {
          "name": "_companyId",
          "type": "uint256"
        },
        {
          "name": "_name",
          "type": "bytes32"
        },
        {
          "name": "phone_no",
          "type": "uint256"
        }
      ],
      "name": "addInsurancecompany",
      "outputs": [],
      "payable": false,
      "stateMutability": "nonpayable",
      "type": "function"
    },
    {
      "constant": true,
      "inputs": [
        {
          "name": "Insu_id",
          "type": "uint256"
        }
      ],
      "name": "getInsuranceCompany",
      "outputs": [
        {
          "name": "name",
          "type": "bytes32"
        },
        {
          "name": "phoneNo",
          "type": "uint256"
        }
      ],
      "payable": false,
      "stateMutability": "view",
      "type": "function"
    },
    {
      "constant": false,
      "inputs": [
        {
          "name": "_Medication",
          "type": "bytes32"
        }
      ],
      "name": "addNotCoverdMedicationInInsurance",
      "outputs": [],
      "payable": false,
      "stateMutability": "nonpayable",
      "type": "function"
    },
    {
      "constant": true,
      "inputs": [
        {
          "name": "_adharCardNumber",
          "type": "uint64"
        }
      ],
      "name": "applyForInsurance",
      "outputs": [
        {
          "name": "InsuranceStatus",
          "type": "bytes32"
        }
      ],
      "payable": false,
      "stateMutability": "view",
      "type": "function"
    },
    {
      "constant": false,
      "inputs": [
        {
          "name": "patient_id",
          "type": "uint256"
        }
      ],
      "name": "createTreatmentID",
      "outputs": [
        {
          "name": "",
          "type": "uint256"
        }
      ],
      "payable": false,
      "stateMutability": "nonpayable",
      "type": "function"
    },
    {
      "constant": false,
      "inputs": [
        {
          "name": "patient_id",
          "type": "uint256"
        },
        {
          "name": "doctor_id",
          "type": "uint256"
        },
        {
          "name": "diagnosis",
          "type": "bytes32"
        },
        {
          "name": "test_conducted",
          "type": "bytes32"
        },
        {
          "name": "bill",
          "type": "uint256"
        },
        {
          "name": "medicine",
          "type": "bytes32"
        }
      ],
      "name": "TreatPatient",
      "outputs": [
        {
          "name": "",
          "type": "uint256"
        }
      ],
      "payable": false,
      "stateMutability": "nonpayable",
      "type": "function"
    },
    {
      "constant": true,
      "inputs": [
        {
          "name": "_tid",
          "type": "uint256"
        }
      ],
      "name": "getTreatmentDetails",
      "outputs": [
        {
          "name": "p_id",
          "type": "uint256"
        },
        {
          "name": "d_id",
          "type": "uint256"
        },
        {
          "name": "diagnosis",
          "type": "bytes32"
        },
        {
          "name": "test_conducted",
          "type": "bytes32"
        },
        {
          "name": "bill",
          "type": "uint256"
        },
        {
          "name": "medicine",
          "type": "bytes32"
        }
      ],
      "payable": false,
      "stateMutability": "view",
      "type": "function"
    },
    {
      "constant": false,
      "inputs": [
        {
          "name": "p_id",
          "type": "uint256"
        },
        {
          "name": "_medication",
          "type": "bytes32"
        }
      ],
      "name": "addInsuranceKeep",
      "outputs": [],
      "payable": false,
      "stateMutability": "nonpayable",
      "type": "function"
    },
    {
      "constant": false,
      "inputs": [
        {
          "name": "doc_id",
          "type": "uint256"
        },
        {
          "name": "name",
          "type": "bytes32"
        },
        {
          "name": "practice_type",
          "type": "bytes32"
        },
        {
          "name": "area_of_expertize",
          "type": "bytes32"
        },
        {
          "name": "phone_no",
          "type": "uint256"
        },
        {
          "name": "Address",
          "type": "bytes32"
        }
      ],
      "name": "addDoctor",
      "outputs": [],
      "payable": false,
      "stateMutability": "nonpayable",
      "type": "function"
    },
    {
      "constant": true,
      "inputs": [
        {
          "name": "_d_id",
          "type": "uint256"
        }
      ],
      "name": "getDoctorDetails",
      "outputs": [
        {
          "name": "doc_id",
          "type": "uint256"
        },
        {
          "name": "name",
          "type": "bytes32"
        },
        {
          "name": "practice_type",
          "type": "bytes32"
        },
        {
          "name": "area_of_expertize",
          "type": "bytes32"
        },
        {
          "name": "phone_no",
          "type": "uint256"
        },
        {
          "name": "Address",
          "type": "bytes32"
        }
      ],
      "payable": false,
      "stateMutability": "view",
      "type": "function"
    },
    {
      "constant": false,
      "inputs": [
        {
          "name": "_adharCardNumber",
          "type": "uint256"
        }
      ],
      "name": "requestAccessToPatient",
      "outputs": [
        {
          "name": "",
          "type": "uint256"
        }
      ],
      "payable": false,
      "stateMutability": "nonpayable",
      "type": "function"
    },
    {
      "constant": false,
      "inputs": [
        {
          "name": "_adharCardNumber",
          "type": "uint256"
        },
        {
          "name": "OTP",
          "type": "uint256"
        }
      ],
      "name": "getDetailsOfAllTID",
      "outputs": [
        {
          "name": "",
          "type": "uint256[]"
        }
      ],
      "payable": false,
      "stateMutability": "nonpayable",
      "type": "function"
    },
    {
      "constant": false,
      "inputs": [
        {
          "name": "chem_id",
          "type": "uint256"
        },
        {
          "name": "Address",
          "type": "bytes32"
        },
        {
          "name": "name",
          "type": "bytes32"
        },
        {
          "name": "phone_no",
          "type": "uint256"
        }
      ],
      "name": "addChemist",
      "outputs": [],
      "payable": false,
      "stateMutability": "nonpayable",
      "type": "function"
    },
    {
      "constant": false,
      "inputs": [
        {
          "name": "chem_id",
          "type": "uint256"
        }
      ],
      "name": "getchemistinfo",
      "outputs": [
        {
          "name": "Address",
          "type": "bytes32"
        },
        {
          "name": "name",
          "type": "bytes32"
        },
        {
          "name": "phone_no",
          "type": "uint256"
        }
      ],
      "payable": false,
      "stateMutability": "nonpayable",
      "type": "function"
    },
    {
      "constant": true,
      "inputs": [
        {
          "name": "p_id",
          "type": "uint256"
        }
      ],
      "name": "giveMedicines",
      "outputs": [
        {
          "name": "",
          "type": "bytes32"
        }
      ],
      "payable": false,
      "stateMutability": "view",
      "type": "function"
    },
    {
      "constant": false,
      "inputs": [],
      "name": "Identify",
      "outputs": [
        {
          "name": "val",
          "type": "uint256"
        }
      ],
      "payable": false,
      "stateMutability": "nonpayable",
      "type": "function"
    }
  ],
  "bytecode": "0x608060405234801561001057600080fd5b50611c41806100206000396000f300608060405260043610610107576000357c0100000000000000000000000000000000000000000000000000000000900463ffffffff1680632debf4d91461010c5780633b6d5b8c1461017b578063412f8c35146101ff57806354ef9b3a146102405780635eb3c37e1461027b57806365df13dc146102ce5780636c5a0ab2146102ff578063759542451461037b578063828927c4146103b6578063a6a471a714610441578063a6f27faf146104c0578063b40970c414610509578063d0b891011461057e578063d48b2e92146105d1578063e22900ff146105fc578063e4837d611461064c578063e8de5cbf146106ab578063eb7d01c2146106f0578063ff4e087714610731575b600080fd5b34801561011857600080fd5b50610179600480360381019080803590602001909291908035600019169060200190929190803560001916906020019092919080356000191690602001909291908035906020019092919080356000191690602001909291905050506107bd565b005b34801561018757600080fd5b506101a660048036038101908080359060200190929190505050610986565b604051808781526020018660001916600019168152602001856000191660001916815260200184600019166000191681526020018381526020018260001916600019168152602001965050505050505060405180910390f35b34801561020b57600080fd5b5061022a60048036038101908080359060200190929190505050610ab1565b6040518082815260200191505060405180910390f35b34801561024c57600080fd5b50610279600480360381019080803590602001909291908035600019169060200190929190505050610ad3565b005b34801561028757600080fd5b506102cc600480360381019080803590602001909291908035600019169060200190929190803560001916906020019092919080359060200190929190505050610bd0565b005b3480156102da57600080fd5b506102fd6004803603810190808035600019169060200190929190505050610d63565b005b34801561030b57600080fd5b5061032a60048036038101908080359060200190929190505050610e12565b60405180878152602001868152602001856000191660001916815260200184600019166000191681526020018381526020018260001916600019168152602001965050505050505060405180910390f35b34801561038757600080fd5b506103b4600480360381019080803590602001909291908035600019169060200190929190505050610eba565b005b3480156103c257600080fd5b506103e160048036038101908080359060200190929190505050610efe565b60405180886000191660001916815260200187600019166000191681526020018681526020018560001916600019168152602001848152602001838152602001826000191660001916815260200197505050505050505060405180910390f35b34801561044d57600080fd5b506104aa600480360381019080803590602001909291908035906020019092919080356000191690602001909291908035600019169060200190929190803590602001909291908035600019169060200190929190505050611001565b6040518082815260200191505060405180910390f35b3480156104cc57600080fd5b506104eb6004803603810190808035906020019092919050505061118e565b60405180826000191660001916815260200191505060405180910390f35b34801561051557600080fd5b5061057c60048036038101908080359060200190929190803560001916906020019092919080356000191690602001909291908035906020019092919080356000191690602001909291908035906020019092919080359060200190929190505050611240565b005b34801561058a57600080fd5b506105b3600480360381019080803567ffffffffffffffff169060200190929190505050611411565b60405180826000191660001916815260200191505060405180910390f35b3480156105dd57600080fd5b506105e66116ed565b6040518082815260200191505060405180910390f35b34801561060857600080fd5b5061062760048036038101908080359060200190929190505050611770565b6040518083600019166000191681526020018281526020019250505060405180910390f35b34801561065857600080fd5b506106776004803603810190808035906020019092919050505061184b565b6040518084600019166000191681526020018360001916600019168152602001828152602001935050505060405180910390f35b3480156106b757600080fd5b506106ee600480360381019080803590602001909291908035600019169060200190929190803590602001909291905050506118e0565b005b3480156106fc57600080fd5b5061071b60048036038101908080359060200190929190505050611a7d565b6040518082815260200191505060405180910390f35b34801561073d57600080fd5b506107666004803603810190808035906020019092919080359060200190929190505050611b22565b6040518080602001828103825283818151815260200191508051906020019060200280838360005b838110156107a957808201518184015260208101905061078e565b505050509050019250505060405180910390f35b600080600088815260200190815260200160002054148061081d57506000600260003373ffffffffffffffffffffffffffffffffffffffff1673ffffffffffffffffffffffffffffffffffffffff16815260200190815260200160002054145b151561082857600080fd5b60c060405190810160405280878152602001866000191681526020018560001916815260200184600019168152602001838152602001826000191681525060076000888152602001908152602001600020600082015181600001556020820151816001019060001916905560408201518160020190600019169055606082015181600301906000191690556080820151816004015560a0820151816005019060001916905590505060026000808881526020019081526020016000208190555085600260003373ffffffffffffffffffffffffffffffffffffffff1673ffffffffffffffffffffffffffffffffffffffff16815260200190815260200160002081905550336003600088815260200190815260200160002060006101000a81548173ffffffffffffffffffffffffffffffffffffffff021916908373ffffffffffffffffffffffffffffffffffffffff160217905550505050505050565b6000806000806000806000600260003373ffffffffffffffffffffffffffffffffffffffff1673ffffffffffffffffffffffffffffffffffffffff1681526020019081526020016000205490506002600080838152602001908152602001600020541480610a065750600160008083815260200190815260200160002054145b1515610a1157600080fd5b6007600089815260200190815260200160002060000154600760008a815260200190815260200160002060010154600760008b815260200190815260200160002060020154600760008c815260200190815260200160002060030154600760008d815260200190815260200160002060040154600760008e8152602001908152602001600020600501549650965096509650965096505091939550919395565b600080620f42438362022bed02811515610ac757fe5b06905080915050919050565b600080600260003373ffffffffffffffffffffffffffffffffffffffff1673ffffffffffffffffffffffffffffffffffffffff168152602001908152602001600020549150600260008084815260200190815260200160002054141515610b3957600080fd5b6001600085815260200190815260200160002060070160018060008781526020019081526020016000206007018054905003815481101515610b7757fe5b906000526020600020015490506006600082815260200190815260200160002060060183908060018154018082558091505090600182039060005260206000200160009091929091909150906000191690555050505050565b6000806000868152602001908152602001600020541480610c3057506000600260003373ffffffffffffffffffffffffffffffffffffffff1673ffffffffffffffffffffffffffffffffffffffff16815260200190815260200160002054145b1515610c3b57600080fd5b836009600086815260200190815260200160002060000181905550826009600086815260200190815260200160002060010181600019169055508160096000868152602001908152602001600020600201816000191690555080600960008681526020019081526020016000206003018190555060046000808681526020019081526020016000208190555083600260003373ffffffffffffffffffffffffffffffffffffffff1673ffffffffffffffffffffffffffffffffffffffff16815260200190815260200160002081905550336003600086815260200190815260200160002060006101000a81548173ffffffffffffffffffffffffffffffffffffffff021916908373ffffffffffffffffffffffffffffffffffffffff16021790555050505050565b6000600260003373ffffffffffffffffffffffffffffffffffffffff1673ffffffffffffffffffffffffffffffffffffffff168152602001908152602001600020549050600360008083815260200190815260200160002054141515610dc857600080fd5b600560008281526020019081526020016000206002018290806001815401808255809150509060018203906000526020600020016000909192909190915090600019169055505050565b60008060008060008060066000888152602001908152602001600020600001546006600089815260200190815260200160002060010154600660008a815260200190815260200160002060020154600660008b815260200190815260200160002060030154600660008c815260200190815260200160002060040154600660008d81526020019081526020016000206005015495509550955095509550955091939550919395565b600160008084815260200190815260200160002054141515610edb57600080fd5b806001600084815260200190815260200160002060060181600019169055505050565b600080600080600080600060016000808a8152602001908152602001600020541480610f3c575060026000808a815260200190815260200160002054145b1515610f4757600080fd5b6001600089815260200190815260200160002060000154600160008a815260200190815260200160002060010154600160008b815260200190815260200160002060020154600160008c815260200190815260200160002060030154600160008d815260200190815260200160002060040154600160008e815260200190815260200160002060050154600160008f8152602001908152602001600020600601549650965096509650965096509650919395979092949650565b6000806000600260003373ffffffffffffffffffffffffffffffffffffffff1673ffffffffffffffffffffffffffffffffffffffff16815260200190815260200160002054915060016000808b815260200190815260200160002054148061107b5750600260008084815260200190815260200160002054145b151561108657600080fd5b61108f89610ab1565b9050886006600083815260200190815260200160002060000181905550876006600083815260200190815260200160002060010181905550866006600083815260200190815260200160002060020181600019169055508560066000838152602001908152602001600020600301816000191690555084600660008381526020019081526020016000206004018190555083600660008381526020019081526020016000206005018160001916905550600160008a815260200190815260200160002060070181908060018154018082558091505090600182039060005260206000200160009091929091909150555080925050509695505050505050565b6000806000600260003373ffffffffffffffffffffffffffffffffffffffff1673ffffffffffffffffffffffffffffffffffffffff16815260200190815260200160002054915060066000600160008781526020019081526020016000206007016001806000898152602001908152602001600020600701805490500381548110151561121757fe5b906000526020600020015481526020019081526020016000206005015490508092505050919050565b6000806000898152602001908152602001600020541480156112a157506000600260003373ffffffffffffffffffffffffffffffffffffffff1673ffffffffffffffffffffffffffffffffffffffff16815260200190815260200160002054145b15156112ac57600080fd5b85600160008981526020019081526020016000206000018160001916905550846001600089815260200190815260200160002060010181600019169055508360016000898152602001908152602001600020600201819055508260016000898152602001908152602001600020600301816000191690555081600160008981526020019081526020016000206004018190555080600160008981526020019081526020016000206005018190555060016000808981526020019081526020016000208190555086600260003373ffffffffffffffffffffffffffffffffffffffff1673ffffffffffffffffffffffffffffffffffffffff16815260200190815260200160002081905550336003600089815260200190815260200160002060006101000a81548173ffffffffffffffffffffffffffffffffffffffff021916908373ffffffffffffffffffffffffffffffffffffffff16021790555050505050505050565b6000806000806000806000600260003373ffffffffffffffffffffffffffffffffffffffff1673ffffffffffffffffffffffffffffffffffffffff16815260200190815260200160002054955060016000808a67ffffffffffffffff1681526020019081526020016000205414806114a5575060026000808a67ffffffffffffffff16815260200190815260200160002054145b80156114e1575060016000808881526020019081526020016000205414806114e0575060026000806002815260200190815260200160002054145b5b15156114ec57600080fd5b600160008967ffffffffffffffff168152602001908152602001600020600401549450600160008967ffffffffffffffff16815260200190815260200160002060070160018060008b67ffffffffffffffff168152602001908152602001600020600701805490500381548110151561156157fe5b9060005260206000200154935060019250600091505b600560008681526020019081526020016000206002018054905082101561169057600115158315151415156115ab57611690565b600090505b60066000858152602001908152602001600020600601805490508110156116835760066000858152602001908152602001600020600601818154811015156115f457fe5b9060005260206000200154604051808260001916600019168152602001915050604051809103902060001916600560008781526020019081526020016000206002018381548110151561164357fe5b9060005260206000200154604051808260001916600019168152602001915050604051809103902060001916141561167e5760009250611683565b6115b0565b8180600101925050611577565b82156116be577f737563636573730000000000000000000000000000000000000000000000000096506116e2565b7f6661696c0000000000000000000000000000000000000000000000000000000096505b505050505050919050565b600080600260003373ffffffffffffffffffffffffffffffffffffffff1673ffffffffffffffffffffffffffffffffffffffff1681526020019081526020016000205490506000806000838152602001908152602001600020541415611756576000915061176c565b6000808281526020019081526020016000205491505b5090565b600080600080600260003373ffffffffffffffffffffffffffffffffffffffff1673ffffffffffffffffffffffffffffffffffffffff16815260200190815260200160002054915060016000808481526020019081526020016000205414806117eb5750600360008087815260200190815260200160002054145b15156117f657600080fd5b6005600086815260200190815260200160002060020180549050905060056000868152602001908152602001600020600001546005600087815260200190815260200160002060010154935093505050915091565b600080600060046000808681526020019081526020016000205414806118835750600160008086815260200190815260200160002054145b151561188e57600080fd5b6009600085815260200190815260200160002060010154600960008681526020019081526020016000206002015460096000878152602001908152602001600020600301549250925092509193909250565b60008060008581526020019081526020016000205414801561194157506000600260003373ffffffffffffffffffffffffffffffffffffffff1673ffffffffffffffffffffffffffffffffffffffff16815260200190815260200160002054145b151561194c57600080fd5b8160056000858152602001908152602001600020600001816000191690555080600560008581526020019081526020016000206001018190555082600260003373ffffffffffffffffffffffffffffffffffffffff1673ffffffffffffffffffffffffffffffffffffffff1681526020019081526020016000208190555060036000808581526020019081526020016000208190555082600260003373ffffffffffffffffffffffffffffffffffffffff1673ffffffffffffffffffffffffffffffffffffffff16815260200190815260200160002081905550336003600085815260200190815260200160002060006101000a81548173ffffffffffffffffffffffffffffffffffffffff021916908373ffffffffffffffffffffffffffffffffffffffff160217905550505050565b6000806000600260003373ffffffffffffffffffffffffffffffffffffffff1673ffffffffffffffffffffffffffffffffffffffff168152602001908152602001600020549150600260008084815260200190815260200160002054141515611ae557600080fd5b8342026040518082815260200191505060405180910390206001900490508060086000868152602001908152602001600020819055505050919050565b60606000600260003373ffffffffffffffffffffffffffffffffffffffff1673ffffffffffffffffffffffffffffffffffffffff168152602001908152602001600020549050600260008083815260200190815260200160002054148015611b9c5750826008600086815260200190815260200160002054145b1515611ba757600080fd5b60016000858152602001908152602001600020600701805480602002602001604051908101604052809291908181526020018280548015611c0757602002820191906000526020600020905b815481526020019060010190808311611bf3575b5050505050915050929150505600a165627a7a72305820ded2ed62a4851b267a8ca28f44dc223325b2369ed0882e772827579e531bb1690029",
  "source": "pragma solidity ^0.4.19;\n//pragma experimental ABIEncoderV2;\n \n \ncontract All_In_One {\n    \n    // Paitent Structure here \n    \n    struct paitent {           \n        bytes32 name;\n        bytes32 addres;\n        uint phoneNo;\n        bytes32 bloodGroup;\n        uint insuranceCompanyId;\n        uint emergencyContact;\n        bytes32 Precautions;\n        uint [] treatmentId;\n    }\n    \n    mapping (uint => uint ) entitie;\n    mapping (uint => paitent ) p_info;\n    mapping (address => uint) addresstoId;\n    mapping (uint => address) IdtoAdress;\n    mapping(address => uint)balancesOfMoney;\n \n    \n    function addPatientInfo (uint _adharCardNumber, bytes32 _name, bytes32 _addres,uint _phoneNo ,bytes32 _bloodGroup , uint _insuranceCompany, uint _emergencyContact) public  {\n        require(entitie[_adharCardNumber]==0 && addresstoId[msg.sender]==0); \n        p_info[_adharCardNumber].name = _name;\n        p_info[_adharCardNumber].addres = _addres;\n        p_info[_adharCardNumber].phoneNo = _phoneNo;\n        p_info[_adharCardNumber].bloodGroup = _bloodGroup;\n        p_info[_adharCardNumber].insuranceCompanyId = _insuranceCompany;\n        p_info[_adharCardNumber].emergencyContact = _emergencyContact;\n        entitie[_adharCardNumber] = 1; \n        addresstoId[msg.sender] = _adharCardNumber;\n        IdtoAdress[_adharCardNumber] = msg.sender;\n    }\n    \n    function getPatientInfo(uint  _adharCardNumber) public view returns(bytes32 name , bytes32 addres,uint phoneNo ,bytes32 bloodGroup , uint insuranceCompany, uint emergencyContacts, bytes32 Precautions){\n        require(entitie[_adharCardNumber]==1 || entitie[_adharCardNumber]==2 );\n        return(p_info[_adharCardNumber].name, p_info[_adharCardNumber].addres, p_info[_adharCardNumber].phoneNo, p_info[_adharCardNumber].bloodGroup, p_info[_adharCardNumber].insuranceCompanyId, p_info[_adharCardNumber].emergencyContact,p_info[_adharCardNumber].Precautions);\n    }\n    \n    function UpdatePrecautions( uint _adharCardNumber,bytes32 _Precautions ) public {\n        require(entitie[_adharCardNumber]==1);\n        p_info[_adharCardNumber].Precautions = _Precautions;\n    }\n    \n    //---------------------------------------------------------------------------------------------------------------------------------\n    // Insurance is here \n    struct insuranceCompany {\n        bytes32 name ;\n        uint phoneNo;\n        bytes32 [] notCovered;\n    }\n    \n    mapping (uint => insuranceCompany)insu_info;\n \n    function addInsurancecompany (uint _companyId, bytes32 _name, uint phone_no) public{\n        require(entitie[_companyId]==0 && addresstoId[msg.sender]==0); \n        insu_info[_companyId].name = _name;\n        insu_info[_companyId].phoneNo = phone_no;\n        addresstoId[msg.sender] = _companyId;\n        entitie[_companyId]=3;\n        addresstoId[msg.sender] = _companyId;\n        IdtoAdress[_companyId] = msg.sender;\n    }\n    \n    function getInsuranceCompany (uint Insu_id) public view returns (bytes32 name, uint phoneNo){\n        uint val = addresstoId[msg.sender];\n        require(entitie[val]==1 || entitie[Insu_id]==3); \n        uint length = insu_info[Insu_id].notCovered.length;\n        return(insu_info[Insu_id].name, insu_info[Insu_id].phoneNo);\n    }\n    \n    function addNotCoverdMedicationInInsurance(bytes32 _Medication) public{\n        uint val = addresstoId[msg.sender];\n        require(entitie[val]==3); \n        insu_info[val].notCovered.push(_Medication);  \n    }\n    \n    function applyForInsurance(uint64 _adharCardNumber) public view returns(bytes32 InsuranceStatus){\n        uint val = addresstoId[msg.sender];\n        require((entitie[_adharCardNumber]==1 || entitie[_adharCardNumber]==2) && (entitie[val]==1 || entitie[2]==2));\n        uint insu_id = p_info[_adharCardNumber].insuranceCompanyId;\n        uint latestTreatmentid = p_info[_adharCardNumber].treatmentId[p_info[_adharCardNumber].treatmentId.length-1];\n        bool flag = true;\n        for(uint j=0;j<insu_info[insu_id].notCovered.length;j++){\n            if(flag!=true)\n            break;\n            else{\n                for(uint i=0;i<tid[latestTreatmentid].InsuranceKeep.length;){\n                    if(keccak256(insu_info[insu_id].notCovered[j])==keccak256(tid[latestTreatmentid].InsuranceKeep[i]))\n                    {\n                        flag = false;\n                        break;\n                    }\n                }    \n            }\n        }\n        if(flag)\n        return(\"success\");\n        //return (0x496e737572616e6365205375636365737366756c6c7920436c61696d6564);\n        else\n        return(\"fail\");\n        //return (0x496e737572616e636520436c61696d696e67204661696c6564);\n    }\n    \n    //---------------------------------------------------------------------------------------------------------------------------------\n    // Treatment Structure here \n    struct treatment {\n        uint patient_id;\n        uint doctor_id;\n        bytes32 diagnosis;\n        bytes32 test_conducted;\n        uint bill;\n        bytes32 medicine;\n        bytes32 [] InsuranceKeep;\n    }\n    \n    mapping(uint=>treatment) tid;\n            \n    function createTreatmentID(uint patient_id) public returns (uint){\n        uint treatment_id = (142317*patient_id)%1000003;\n        return treatment_id;\n    }\n    \n    function TreatPatient(uint patient_id,uint doctor_id,bytes32 diagnosis,bytes32 test_conducted,uint bill,bytes32 medicine) public  returns (uint){\n        uint val = addresstoId[msg.sender];\n        require(entitie[patient_id]==1 || entitie[val]==2 );\n        uint _tid = createTreatmentID(patient_id);\n        tid[_tid].patient_id = patient_id;\n        tid[_tid].doctor_id = doctor_id;\n        tid[_tid].diagnosis = diagnosis;\n        tid[_tid].test_conducted = test_conducted;\n        tid[_tid].bill = bill;\n        tid[_tid].medicine = medicine;\n        p_info[patient_id].treatmentId.push(_tid); // pushing treatmentId to array in treatmentId.\n        return _tid;\n    }\n    \n    function getTreatmentDetails(uint _tid) public view returns (uint p_id,uint d_id,bytes32 diagnosis,bytes32 test_conducted,uint bill,bytes32 medicine) {\n        return (tid[_tid].patient_id,tid[_tid].doctor_id,tid[_tid].diagnosis,tid[_tid].test_conducted,tid[_tid].bill,tid[_tid].medicine);\n    }\n        \n    function addInsuranceKeep(uint p_id, bytes32  _medication) public {\n        uint val = addresstoId[msg.sender];\n        require(entitie[val]==2); \n        uint _t_id = p_info[p_id].treatmentId[p_info[p_id].treatmentId.length-1];\n        tid[_t_id].InsuranceKeep.push(_medication);   \n    }\n    \n    //---------------------------------------------------------------------------------------------------------------------------------\n    //Doctor starts here\n    \n     struct doctor{\n        uint doc_id;\n        bytes32 name;\n        bytes32 practice_type;\n        bytes32 area_of_expertize;\n        uint phone_no;\n        bytes32 Address;\n    }\n    \n    mapping(uint=>doctor) did;\n    mapping(uint => uint) Otp;\n    \n    function addDoctor(uint doc_id,bytes32 name,bytes32 practice_type,bytes32 area_of_expertize,uint phone_no,bytes32 Address) public {\n        require(entitie[doc_id]==0 || addresstoId[msg.sender]==0); \n        did[doc_id] = doctor(doc_id,name,practice_type,area_of_expertize,phone_no,Address);\n        entitie[doc_id]=2;\n        addresstoId[msg.sender] = doc_id;\n        IdtoAdress[doc_id] = msg.sender;\n    }\n \n    function getDoctorDetails(uint _d_id) public constant returns (uint doc_id,bytes32 name,bytes32 practice_type,bytes32 area_of_expertize,uint phone_no,bytes32 Address){\n        uint val = addresstoId[msg.sender];\n        require(entitie[val]==2 || entitie[val]==1 ); \n        return( did[_d_id].doc_id,did[_d_id].name,did[_d_id].practice_type,did[_d_id].area_of_expertize,did[_d_id].phone_no,did[_d_id].Address);\n    }\n\n    function requestAccessToPatient(uint _adharCardNumber) returns(uint){\n           uint val = addresstoId[msg.sender];\n           require(entitie[val]==2);\n           uint otp = uint(keccak256(now*_adharCardNumber));\n           Otp[_adharCardNumber] = otp;\n       }\n       \n       function getDetailsOfAllTID(uint _adharCardNumber, uint OTP) public returns(uint []){\n           uint val = addresstoId[msg.sender];\n           require(entitie[val]==2 && Otp[_adharCardNumber]==OTP);\n           return(p_info[_adharCardNumber].treatmentId);\n           \n       }\n\n    \n    //---------------------------------------------------------------------------------------------------------------------------------\n    //Medical store\n    \n    struct chemist {\n        uint chemist_id;\n        bytes32 Address;\n        bytes32 name;\n        uint phoneNo;\n        bytes32 [] medicines;\n    }\n    \n    mapping(uint=>chemist) cid;\n \n    function addChemist(uint chem_id, bytes32 Address, bytes32 name,uint phone_no) public {\n        require(entitie[chem_id]==0 || addresstoId[msg.sender]==0); \n        cid[chem_id].chemist_id = chem_id;\n        cid[chem_id].Address = Address;\n        cid[chem_id].name = name;\n        cid[chem_id].phoneNo = phone_no;\n        entitie[chem_id]=4;\n        addresstoId[msg.sender] = chem_id;\n        IdtoAdress[chem_id] = msg.sender;\n    }\n    \n    function getchemistinfo(uint chem_id) public returns(bytes32 Address, bytes32 name,uint phone_no){\n        require(entitie[chem_id]==4 || entitie[chem_id]==1); \n        return( cid[chem_id].Address,cid[chem_id].name,cid[chem_id].phoneNo);\n    }\n    \n    function giveMedicines(uint p_id) public constant returns(bytes32){\n        uint val = addresstoId[msg.sender];\n        bytes32 medicatines = tid[p_info[p_id].treatmentId[p_info[p_id].treatmentId.length-1]].medicine;\n        return(medicatines);\n    }\n    \n//--------------------------------------------------------------------------------------------------------------------------\n//Identify\n \n    function Identify() public returns (uint val) {\n        uint No = addresstoId[msg.sender];\n        if(entitie[No]==0){\n            return(0);\n        }\n        else \n            return(entitie[No]);\n    }\n \n}\n \n \n \n \n \n \n \n \n \n \n \n \n \n",
  "sourcePath": "/home/rsd/rahul/blockchain/main/contracts/All_In_One.sol",
  "compiler": {
    "name": "solc",
    "version": "0.4.25+commit.59dbf8f1.Emscripten.clang"
  },
  "schemaVersion": "2.0.2",
  "updatedAt": "2019-01-05T23:41:49.075Z"
}